:10000000406001000000000000000000000000004F
:1000100000000000000000000000000000000000E0
:1000200000000000000000000000000000000000D0
:1000300000000000000000000000000000000000C0
:1000400000000000000000000000000000000000B0
:1000500000000000000000000000000000000000A0
:100060000000000000000000000000000000000090
:100070000000000000000000000000000000000080
:100080000000000000000000000000000000000070
:100090000000000000000000000000000000000060
:1000A0000000000000000000000000000000000050
:1000B0000000000000000000000000000000000040
:1000C0000000000000000000000000000000000030
:1000D0000000000000000000000000000000000020
:1000E0000000000000000000000000000000000010
:1000F0000000000000000000000000000000000000
:1001000040940D40850D40A40D40780440BF04404C
:10011000F40440AB0D40D50E403005403A08409FF6
:100120000C40F609405A0A40920A40A20B40D50BF7
:10013000401A0C40300640DB06403807408F07402D
:10014000530B407207408B070000000000000000C6
:10015000000000000000000000000000000000009F
:1001600033FF37FE10031404FF10151404FF102191
:10017000146E701000147A701004146F70107114E3
:10018000787031F4350E43AB0D3115350F43AB0D9F
:1001900043C70D32003670430F0E164889011445CF
:1001A0007011452548F001124570114425485C0244
:1001B00012457011492548C902124570114625485B
:1001C000190312457011422548F00312457011477A
:1001D00025484704124570113F25485A04124570BE
:1001E000114825485A043118350F43AB0D40890199
:1001F000433A0E4AE60143BE0E43CC0E103A438505
:100200000D43C10D5143D50E43C10D43940D110D46
:1002100025484402124470112E2548560243850D8C
:10022000431B0E4A4B0214457043940D43850D4306
:100230001B0E4A4B021444701245702828282813BC
:100240004470231D5443B60D40F901103F43850D02
:1002500043B60D40F90143B60D408901433A0E4AB9
:10026000E60143BE0E101014467043CC0E43C10D80
:1002700043C70E10101445701543D50E43C10D121F
:1002800045702714457049780243C10D101014457C
:1002900070161120254CA102117F254AA10240A30E
:1002A00002102E43850D12457027144570499102A6
:1002B00043B60D12467027144670496A0243940DE6
:1002C000112E254889014065024378044A0F0343F3
:1002D000640410EC1417FF436E043100357143CDF4
:1002E00004311C350F43AB0D3136357110141446F3
:1002F00070151445701543850D12457043850D1218
:1003000046702714467049F10243B60D4089013109
:1003100024350F43AB0D408901312F350F43AB0D11
:1003200043940D43850D43B60D1244701159254970
:1003300089014378044A0F03435C0D105014007187
:10034000103814017110021402711000140371109E
:10035000251404711000140571100014477043F443
:1003600004435C0D31003571102E19100B144470CC
:100370001020191244702714447049700343C203BB
:10038000102E19102E19100A14447010201912443E
:100390007027144470498B0343C203102114477023
:1003A00043F404435C0D102214477043F4041247D5
:1003B00070261125254CA8033148350F43AB0D405D
:1003C00089011021191000191919100019100819A4
:1003D0001000191910001919191910021910071411
:1003E00044701000191244702714447049E203420B
:1003F0004378044A0F0310001447703100357143ED
:10040000BF04120071115025493D041201711138C9
:1004100025493D04120371483D041446701001142F
:1004200047703100354043BF0412477026144770AF
:100430001246702714467049260440004031543556
:100440000F43AB0D408901433A0E4AE60143BE0E0D
:1004500043B60D4143B60D4089013164350F43ABBE
:100460000D4089011217FF118022496404421217BE
:10047000FF110822486E044210001448701449709D
:1004800043640410E01416FF10011411FF10EF1460
:1004900017FF4364041217FF11012248A00473429E
:1004A00072421247701413FF1248701414FF12495D
:1004B000701415FF10E01416FF10011412FF4243D0
:1004C000640443A20410201417FF436E04100014A8
:1004D00044701210FF191244702614447049D2045B
:1004E00010001444701210FF191244702614447046
:1004F00049E504423100357143640443A2041030DD
:100500001417FF436E041000144470151410FF12EA
:10051000447026144470490B0510001444701514DF
:1005200010FF12447026144470491E0543640442AF
:100530004358054A4305127070110125494305725D
:1005400040440573434805421021146E7010001496
:100550007A701004146F7042126F70144670126E2D
:1005600070144070127A7014417012407014477009
:10057000124170144870100014497010005E127817
:10058000705F43BF04100060127870611010144453
:1005900070314A35701001144370100C14427016FB
:1005A000144570151345702548B0051000144370AC
:1005B00012427027144270499F0516144770161492
:1005C000487016144970161614587016145970167F
:1005D00016161616161614457010071442701612C9
:1005E00042702714427049DE05124570482C0614EB
:1005F0007070124370480706127070110125482E62
:1006000006110225482E06124470271444704991A1
:1006100005124070261440704922061241702614BB
:10062000417012467027144670496A05734272423F
:1006300068147170691472701021146E70100014B7
:100640007A701004146F70127170601272706152BF
:10065000112F25495706556A1471706B1472703149
:100660004A3570100C144270102019124270271471
:100670004270496806314A357012717060127270AA
:1006800061100C1442705248A306112F2548AD0684
:10069000124270489F065219124270271442705538
:1006A0004086066A1471706B1472707242556A1437
:1006B00071706B1472704358054AD906127070112C
:1006C000022549D906124770146E70124870147AC8
:1006D000701004146F70405F067342324A36701017
:1006E0000C14447010201A1244702714447049E40A
:1006F00006324A3670100C144470514837071445BE
:10070000701120254837071244704837071245708A
:100710001161254C2807107A134570254C280712C3
:1007200045701120211445701245701A124470272B
:100730001444705440FA06424330064A6D07124A88
:1007400070112025485C074358054A6D07127070E8
:10075000110225496D07124770406507127A70141F
:100760004870126E70437207434805724243480551
:1007700073421473701248701479701004147470FA
:100780001000147570107114787042147870421251
:1007900074704838081273701447701279701448D6
:1007A00070100014497010005E1278705F43BF042F
:1007B00012757011072228282828286012757029C0
:1007C00029291378702061314A3570100C14447057
:1007D00016191244702714447049D0071614477034
:1007E00016144870161449701616145870161459B9
:1007F000701616161616165214707012757026148E
:100800007570111025492508100014757012737049
:1008100026147370491E08127970261479701274A8
:10082000702714747012707048330811FF25488FB8
:100830000772421000147470734243410843480524
:1008400042125870145A70125970145B7043580554
:100850004CF409125A70145870125B7014597010CD
:10086000001447701448701449703100357143BF4B
:100870000412047114407014477012057114417011
:1008800014487010001449701256705E1257705F51
:1008900010001446701258701444701259701445A8
:1008A000701244701345702348E00843F80412475F
:1008B000702614477049BF081248702614487012F9
:1008C0004670261446701245701102214CD508144A
:1008D000457040A108100014447014457040A108F0
:1008E000120471134670201404711205714CF10842
:1008F0002614057110001447701448701449704391
:10090000F404126F70144670126E70144270127AF2
:1009100070147B70124270144770127B7014487010
:1009200010001449703100357143BF043200367134
:1009300010101444706A1456706B14577010181409
:100940004370161243702714437049420952488E6F
:100950000911FF25488E09100814437016124370C0
:1009600027144370495C09124470271444704935B8
:100970000912427026144270498209127B702614B3
:100980007B70124670271446704914097342125640
:10099000706012577061314A3570100C1443701535
:1009A0001A12437027144370499F091240701A129B
:1009B00041701A10001A1A1258701A1259701A102F
:1009C000001A1A10001A1A1A1A10011A10071443E2
:1009D0007010001A1243702714437049D109124253
:1009E00070144770127B70144870100014497043E3
:1009F000F4047242734243FD094348054210001457
:100A00004670125870144470125970144570124494
:100A1000701345702348390A124670261446701226
:100A200045701102214C2E0A144570400E0A100028
:100A3000144470144570400E0A1000144770144896
:100A4000701449703100357143BF041204711440B1
:100A50007012057114417040E008681461706914E7
:100A600062704330054A900A124770145C70124855
:100A700070145D70124970145E70125870145F70BB
:100A80001259701460701000146570146670724210
:100A90007342125F7013607023499E0A734212659D
:100AA000701366702349AB0A43EE0A1263705E123C
:100AB00064705F1514447068146370691464701274
:100AC00065701101211465704AD40A126670110113
:100AD00021146670125F70110121145F704AE90AD7
:100AE0001260701101211460701244707242125C25
:100AF00070144770125D70144870125E7014497063
:100B00001261705E1262705F43BF04125C70261443
:100B10005C7049260B125D7026145D7049260B121D
:100B20005E7026145E70126170146370126270142D
:100B300064701260701102254A480B125F701465D0
:100B40007012607014667042100014657010021408
:100B500066704212587014767012597014777012C1
:100B600076701377702348A10B43BF041247702699
:100B700014477049870B1248702614487049870B38
:100B8000124970261449701277701102214C960B8D
:100B9000147770405F0B1000147670147770405F0C
:100BA0000B4210001447701448701449703100351E
:100BB0007143BF04120471146770120571146870D8
:100BC0001000146970146A70146B70146C70146DDA
:100BD0007043790C42144470126A705E1071136B8A
:100BE00070205F1244701D126A70110120146A7027
:100BF000126B704CFA0B26146B70126C7011012082
:100C0000146C70126D704C0D0C26146D70126B709C
:100C100011022549190C433D0C42126A70136B7086
:100C20002348270C433D0C126C70145870126D70E1
:100C300014597043A60C43FD0943480542126770DE
:100C40001447701268701448701269701449704328
:100C5000F40412677026146770496D0C12687026D0
:100C6000146870496D0C12697026146970100014B4
:100C70006A70146B7043790C4231003571100214A4
:100C80004670100014447010001912447027144468
:100C90007049870C1246702714467049820C4243F3
:100CA000A60C43480542126F70144670126E701401
:100CB000407012407014477010001448701449704E
:100CC0003100357143BF0432003671101014447086
:100CD000314A35701001144370100C144270161410
:100CE0004570151345702548EF0C10001443701221
:100CF00042702714427049DE0C100C144270161218
:100D000042702714427049FE0C52485A0D110125B9
:100D1000492F0D124370482F0D10FF1E1240701402
:100D20004770100014487014497043F40472421064
:100D300008144270161242702714427049340D1282
:100D400044702714447049D00C124070261440702F
:100D50001246702714467049B20C73423100357147
:100D60001000144470100019124470261444704985
:100D7000650D1000144470100019124470261444BC
:100D80007049770D42701204FF11022248860D71DE
:100D90001405FF421204FF11012248940D1205FFB1
:100DA000144470421204FF110122421548B50D434C
:100DB000850D40AB0D42100D43850D100A43850D86
:100DC00042102043850D423200367043940D110DC0
:100DD0002548080E12447011082548F00D12447081
:100DE000117F2548F00D12447043850D1A40CB0D3C
:100DF0006A11002548CB0D59100843850D43C10DDC
:100E0000100843850D40CB0D10001E43B60D425215
:100E1000112025491A0E55400F0E421130214C3831
:100E20000E110A254C360E110721110A254C380ED9
:100E30001110254A380E72427342430F0E100014EF
:100E400042701443701445705248A80E1120254872
:100E5000A80E55431B0E4ABC0E1446701242702851
:100E60001442701243702A144370124270281442C4
:100E7000701243702A144370124270281442701288
:100E800043702A1443701242702814427012437047
:100E90002A14437012427013467023144270124594
:100EA000702614457040480E12457048BC0E124220
:100EB00070144070124370144170724273421240B9
:100EC000705E1241705F4268606961426943D50E8D
:100ED0006843D50E42702929292943DE0E71110F6E
:100EE00022110A254AED0E11302040F00E11372054
:100EF00043850D420D0A503858204D4F4E49544FEE
:100F0000522056312E300D0A3F20464F5220484580
:100F10004C500D0A002A20003F0D0A004346204F86
:100F20004B3A20004346204552524F520D0A00468C
:100F30004F524D4154204346202D20535552453F9A
:100F40002028592F4E292000464F524D41545445D8
:100F5000440D0A004E4F204F53204F4E2043415224
:100F6000440D0A005038584D4F4E20434F4D4D41CF
:100F70004E445320202841414141203D2034204807
:100F8000455820444947495453293A0D0A452041C0
:100F900041414120204558414D494E452F4D4F4438
:100FA0004946592046524F4D204141414120285445
:100FB000595045204845583D5345542C2043523DF7
:100FC0004E4558542C202E3D45584954290D0A446D
:100FD0002041414141202044554D5020323536209A
:100FE00042595445532046524F4D204141414120E2
:100FF0002843523D4E45585420424C4F434B2C20E1
:101000002E3D45584954290D0A49202020202020F2
:1010100020494E49542043463A2053455420382D08
:101020004249542C204944454E544946592C20509D
:1010300052494E54204D4F44454C0D0A4620202025
:1010400020202020464F524D4154204346204153FA
:10105000205038584653202841534B5320592F4E87
:10106000290D0A4220202020202020424F4F5420CA
:101070004F5320494D4147452046524F4D2043464E
:1010800020544F2024343030300D0A472041414154
:1010900041202043414C4C204141414120284A53AA
:1010A000522C205254532052455455524E532048EE
:1010B000455245290D0A3F202F2048202020544822
:1010C00049532048454C500D0A0000000000000024
:1010D0000000000000000000000000000000000010
:1010E0000000000000000000000000000000000000
:1010F00000000000000000000000000000000000F0
:1011000000000000000000000000000000000000DF
:00000001FF
