:1000000000000000000000000000000000000000F0
:1000100000000000000000000000000000000000E0
:1000200000000000000000000000000000000000D0
:1000300000000000000000000000000000000000C0
:1000400000000000000000000000000000000000B0
:1000500000000000000000000000000000000000A0
:100060000000000000000000000000000000000090
:100070000000000000000000000000000000000080
:100080000000000000000000000000000000000070
:100090000000000000000000000000000000000060
:1000A0000000000000000000000000000000000050
:1000B0000000000000000000000000000000000040
:1000C0000000000000000000000000000000000030
:1000D0000000000000000000000000000000000020
:1000E0000000000000000000000000000000000010
:1000F0000000000000000000000000000000000000
:1001000002060202000202020002020202020202CF
:100110000A0A0000000A0A0A02020202020202029D
:10012000020202020202020202021212020202028F
:1001300002000000020000000202020202020202AB
:1001400000000000000000000000000200020202A7
:10015000020A0A0A02020202020202020202020267
:1001600002020202020202020A0A0A0A0A0A02023F
:100170000200422202020202020202020202020201
:100180008282828282820200020202020202020251
:10019000020202020202020202020202020202023F
:1001A000020202020202020202020202020202022F
:1001B000020202020202020202020202020202021F
:1001C000020202020202020202020202020202020F
:1001D00002020202020202020202020202020202FF
:1001E00002020202020202020202020202020202EF
:1001F00002020202020202020202020202020202DF
:1002000002020202000202020002020202020202D2
:1002100002020000000202020202020202020202C4
:1002200002020202020202020202020202020202AE
:10023000020202020202020202020202020202029E
:1002400000000000010101010000000200020202A2
:10025000020202020202020202020202020202027E
:10026000020202020202020202020202020202026E
:10027000020A020202020202020202020202020256
:100280000202020202020200020202020202020250
:10029000020202020202020202020202020202023E
:1002A000020202020202020202020202020202022E
:1002B000020202020202020202020202020202021E
:1002C000020202020202020202020202020202020E
:1002D00002020202020202020202020202020202FE
:1002E00002020202020202020202020202020202EE
:1002F00002020202020202020202020202020202DE
:1003000002020202000202020002020202020202D1
:1003100002020000000202020202020202020202C3
:1003200002020202020202020202020202020202AD
:10033000020202020202020202020202020202029D
:100340000000000003010301020002020002020299
:10035000020202020202020202020202020202027D
:10036000020202020202020202020202020202026D
:10037000020202020202020202020202020202025D
:10038000020202020202020002020202020202024F
:10039000020202020202020202020202020202023D
:1003A000020202020202020202020202020202022D
:1003B000020202020202020202020202020202021D
:1003C000020202020202020202020202020202020D
:1003D00002020202020202020202020202020202FD
:1003E00002020202020202020202020202020202ED
:1003F00002020202020202020202020202020202DD
:1004000002020202000202020002020202020202D0
:1004100002020000000202020202020202020202C2
:1004200002020202020202020202020202020202AC
:10043000020202020202020202020202020202029C
:100440000200000002020202020202020202020292
:10045000020202020202020202020202020202027C
:10046000020202020202020202020202020202026C
:10047000020202020202020202020202020202025C
:10048000020202020202020002020202020202024E
:10049000020202020202020202020202020202023C
:1004A000020202020202020202020202020202022C
:1004B000020202020202020202020202020202021C
:1004C000020202020202020202020202020202020C
:1004D00002020202020202020202020202020202FC
:1004E00002020202020202020202020202020202EC
:1004F00002020202020202020202020202020202DC
:1005000002020202000202020002020202020202CF
:1005100002020A0A020202020202020202020202AB
:1005200002020202020202020202020202020202AB
:10053000020202020202020202020202020202029B
:100540000200000002020202020202020202020291
:10055000020202020202020202020202020202027B
:10056000020202020202020202020202020202026B
:10057000020202020202020202020202020202025B
:10058000020202020202020202020202020202024B
:10059000020202020202020202020202020202023B
:1005A000020202020202020202020202020202022B
:1005B000020202020202020202020202020202021B
:1005C000020202020202020202020202020202020B
:1005D00002020202020202020202020202020202FB
:1005E00002020202020202020202020202020202EB
:1005F00002020202020202020202020202020202DB
:1006000002020202000202020002020202020202CE
:1006100002020202020202020202020202020202BA
:1006200002020202020202020202020202020202AA
:10063000020202020202020202020202020202029A
:10064000020002000202020202020202020202028E
:10065000020202020202020202020202020202027A
:10066000020202020202020202020202020202026A
:10067000020202020202020202020202020202025A
:10068000020202020202020202020202020202024A
:10069000020202020202020202020202020202023A
:1006A000020202020202020202020202020202022A
:1006B000020202020202020202020202020202021A
:1006C000020202020202020202020202020202020A
:1006D00002020202020202020202020202020202FA
:1006E00002020202020202020202020202020202EA
:1006F00002020202020202020202020202020202DA
:1007000002020202000202020002020202020202CD
:1007100002020202020202020202020202020202B9
:1007200002020202020202020202020202020202A9
:100730000202020202020202020202020202020299
:10074000020002000202020202020202020202028D
:100750000202020202020202020202020202020279
:100760000202020202020202020202020202020269
:100770000202020202020202020202020202020259
:100780000202020202020202020202020202020249
:100790000202020202020202020202020202020239
:1007A0000202020202020202020202020202020229
:1007B0000202020202020202020202020202020219
:1007C0000202020202020202020202020202020209
:1007D00002020202020202020202020202020202F9
:1007E00002020202020202020202020202020202E9
:1007F00002020202020202020202020202020202D9
:1008000002020202000202020002020202020202CC
:1008100002020202020202020202020202020202B8
:1008200002020202020202020202020202020202A8
:100830000202020202020202020202020202020298
:10084000020202000202020202020202020202028A
:100850000202020202020202020202020202020278
:100860000202020202020202020202020202020268
:100870000202020202020202020202020202020258
:100880000202020202020202020202020202020248
:100890000202020202020202020202020202020238
:1008A0000202020202020202020202020202020228
:1008B0000202020202020202020202020202020218
:1008C0000202020202020202020202020202020208
:1008D00002020202020202020202020202020202F8
:1008E00002020202020202020202020202020202E8
:1008F00002020202020202020202020202020202D8
:1009000002020202020202020202020202020202C7
:1009100002020202020202020202020202020202B7
:1009200002020202020202020202020202020202A7
:100930000202020202020202020202020202020297
:100940000202020002020202020202020202020289
:100950000202020202020202020202020202020277
:100960000202020202020202020202020202020267
:100970000202020202020202020202020202020257
:100980000202020202020202020202020202020247
:100990000202020202020202020202020202020237
:1009A0000202020202020202020202020202020227
:1009B0000202020202020202020202020202020217
:1009C0000202020202020202020202020202020207
:1009D00002020202020202020202020202020202F7
:1009E00002020202020202020202020202020202E7
:1009F00002020202020202020202020202020202D7
:100A000002020202020202020202020202020202C6
:100A100002020202020202020202020202020202B6
:100A200002020202020202020202020202020202A6
:100A30000202020202020202020202020202020296
:100A40000202020002020202020202020202020288
:100A50000202020202020202020202020202020276
:100A60000202020202020202020202020202020266
:100A70000202020202020202020202020202020256
:100A80000202020202020202020202020202020246
:100A90000202020202020202020202020202020236
:100AA0000202020202020202020202020202020226
:100AB0000202020202020202020202020202020216
:100AC0000202020202020202020202020202020206
:100AD00002020202020202020202020202020202F6
:100AE00002020202020202020202020202020202E6
:100AF00002020202020202020202020202020202D6
:100B000002020202020202020202020202020202C5
:100B100002020202020202020202020202020202B5
:100B200002020202020202020202020202020202A5
:100B30000202020202020202020202020202020295
:100B40000202020002020202020202020202020287
:100B50000202020202020202020202020202020275
:100B60000202020202020202020202020202020265
:100B70000202020202020202020202020202020255
:100B80000202020202020202020202020202020245
:1011000002060202000202020002020202020202BF
:101110000A0A0000000A0A0A02020202020202028D
:10112000020202020202020202021212020202027F
:10113000020000000200000002020202020202029B
:101140000000000000000000000000020002020297
:10115000020A0A0A02020202020202020202020257
:1011600002020202020202020A0A0A0A0A0A02022F
:1011700002004222020202020202020202020202F1
:101180008282828282820200020202020202020241
:10119000020202020202020202020202020202022F
:1011A000020202020202020202020202020202021F
:1011B000020202020202020202020202020202020F
:1011C00002020202020202020202020202020202FF
:1011D00002020202020202020202020202020202EF
:1011E00002020202020202020202020202020202DF
:1011F00002020202020202020202020202020202CF
:1012000002020202000202020002020202020202C2
:1012100002020000000202020202020202020202B4
:10122000020202020202020202020202020202029E
:10123000020202020202020202020202020202028E
:101240000000000001010101000000020002020292
:10125000020202020202020202020202020202026E
:10126000020202020202020202020202020202025E
:10127000020A020202020202020202020202020246
:101280000202020202020200020202020202020240
:10129000020202020202020202020202020202022E
:1012A000020202020202020202020202020202021E
:1012B000020202020202020202020202020202020E
:1012C00002020202020202020202020202020202FE
:1012D00002020202020202020202020202020202EE
:1012E00002020202020202020202020202020202DE
:1012F00002020202020202020202020202020202CE
:1013000002020202000202020002020202020202C1
:1013100002020000000202020202020202020202B3
:10132000020202020202020202020202020202029D
:10133000020202020202020202020202020202028D
:101340000000000001030103000200020202020289
:10135000020202020202020202020202020202026D
:10136000020202020202020202020202020202025D
:10137000020202020202020202020202020202024D
:10138000020202020202020002020202020202023F
:10139000020202020202020202020202020202022D
:1013A000020202020202020202020202020202021D
:1013B000020202020202020202020202020202020D
:1013C00002020202020202020202020202020202FD
:1013D00002020202020202020202020202020202ED
:1013E00002020202020202020202020202020202DD
:1013F00002020202020202020202020202020202CD
:1014000002020202000202020002020202020202C0
:1014100002020000000202020202020202020202B2
:10142000020202020202020202020202020202029C
:10143000020202020202020202020202020202028C
:101440000200000002020202020202020202020282
:10145000020202020202020202020202020202026C
:10146000020202020202020202020202020202025C
:10147000020202020202020202020202020202024C
:10148000020202020202020002020202020202023E
:10149000020202020202020202020202020202022C
:1014A000020202020202020202020202020202021C
:1014B000020202020202020202020202020202020C
:1014C00002020202020202020202020202020202FC
:1014D00002020202020202020202020202020202EC
:1014E00002020202020202020202020202020202DC
:1014F00002020202020202020202020202020202CC
:1015000002020202000202020002020202020202BF
:1015100002020A0A0202020202020202020202029B
:10152000020202020202020202020202020202029B
:10153000020202020202020202020202020202028B
:101540000200000002020202020202020202020281
:10155000020202020202020202020202020202026B
:10156000020202020202020202020202020202025B
:10157000020202020202020202020202020202024B
:10158000020202020202020202020202020202023B
:10159000020202020202020202020202020202022B
:1015A000020202020202020202020202020202021B
:1015B000020202020202020202020202020202020B
:1015C00002020202020202020202020202020202FB
:1015D00002020202020202020202020202020202EB
:1015E00002020202020202020202020202020202DB
:1015F00002020202020202020202020202020202CB
:1016000002020202000202020002020202020202BE
:1016100002020202020202020202020202020202AA
:10162000020202020202020202020202020202029A
:10163000020202020202020202020202020202028A
:10164000020002000202020202020202020202027E
:10165000020202020202020202020202020202026A
:10166000020202020202020202020202020202025A
:10167000020202020202020202020202020202024A
:10168000020202020202020202020202020202023A
:10169000020202020202020202020202020202022A
:1016A000020202020202020202020202020202021A
:1016B000020202020202020202020202020202020A
:1016C00002020202020202020202020202020202FA
:1016D00002020202020202020202020202020202EA
:1016E00002020202020202020202020202020202DA
:1016F00002020202020202020202020202020202CA
:1017000002020202000202020002020202020202BD
:1017100002020202020202020202020202020202A9
:101720000202020202020202020202020202020299
:101730000202020202020202020202020202020289
:10174000020002000202020202020202020202027D
:101750000202020202020202020202020202020269
:101760000202020202020202020202020202020259
:101770000202020202020202020202020202020249
:101780000202020202020202020202020202020239
:101790000202020202020202020202020202020229
:1017A0000202020202020202020202020202020219
:1017B0000202020202020202020202020202020209
:1017C00002020202020202020202020202020202F9
:1017D00002020202020202020202020202020202E9
:1017E00002020202020202020202020202020202D9
:1017F00002020202020202020202020202020202C9
:1018000002020202000202020002020202020202BC
:1018100002020202020202020202020202020202A8
:101820000202020202020202020202020202020298
:101830000202020202020202020202020202020288
:10184000020202000202020202020202020202027A
:101850000202020202020202020202020202020268
:101860000202020202020202020202020202020258
:101870000202020202020202020202020202020248
:101880000202020202020202020202020202020238
:101890000202020202020202020202020202020228
:1018A0000202020202020202020202020202020218
:1018B0000202020202020202020202020202020208
:1018C00002020202020202020202020202020202F8
:1018D00002020202020202020202020202020202E8
:1018E00002020202020202020202020202020202D8
:1018F00002020202020202020202020202020202C8
:1019000002020202020202020202020202020202B7
:1019100002020202020202020202020202020202A7
:101920000202020202020202020202020202020297
:101930000202020202020202020202020202020287
:101940000202020002020202020202020202020279
:101950000202020202020202020202020202020267
:101960000202020202020202020202020202020257
:101970000202020202020202020202020202020247
:101980000202020202020202020202020202020237
:101990000202020202020202020202020202020227
:1019A0000202020202020202020202020202020217
:1019B0000202020202020202020202020202020207
:1019C00002020202020202020202020202020202F7
:1019D00002020202020202020202020202020202E7
:1019E00002020202020202020202020202020202D7
:1019F00002020202020202020202020202020202C7
:101A000002020202020202020202020202020202B6
:101A100002020202020202020202020202020202A6
:101A20000202020202020202020202020202020296
:101A30000202020202020202020202020202020286
:101A40000202020002020202020202020202020278
:101A50000202020202020202020202020202020266
:101A60000202020202020202020202020202020256
:101A70000202020202020202020202020202020246
:101A80000202020202020202020202020202020236
:101A90000202020202020202020202020202020226
:101AA0000202020202020202020202020202020216
:101AB0000202020202020202020202020202020206
:101AC00002020202020202020202020202020202F6
:101AD00002020202020202020202020202020202E6
:101AE00002020202020202020202020202020202D6
:101AF00002020202020202020202020202020202C6
:101B000002020202020202020202020202020202B5
:101B100002020202020202020202020202020202A5
:101B20000202020202020202020202020202020295
:101B30000202020202020202020202020202020285
:101B40000202020002020202020202020202020277
:101B50000202020202020202020202020202020265
:101B60000202020202020202020202020202020255
:101B70000202020202020202020202020202020245
:101B80000202020202020202020202020202020235
:00000001FF
