:1000000000000000000000000000000000000000F0
:1000100000000000000000000000000000000000E0
:1000200000000000000000000000000000000000D0
:1000300000000000000000000000000000000000C0
:1000400000000000000000000000000000000000B0
:1000500000000000000000000000000000000000A0
:100060000000000000000000000000000000000090
:100070000000000000000000000000000000000080
:100080000000000000000000000000000000000070
:100090000000000000000000000000000000000060
:1000A0000000000000000000000000000000000050
:1000B0000000000000000000000000000000000040
:1000C0000000000000000000000000000000000030
:1000D0000000000000000000000000000000000020
:1000E0000000000000000000000000000000000010
:1000F0000000000000000000000000000000000000
:1001000002060202000202020002020202020202CF
:100110000A0A0000000A0A0A02020202020202029D
:10012000020202020202020202021212020202028F
:1001300002000000020000000000000200000202B5
:1001400000000000010101010000000200020202A3
:10015000020A0A0A02020202020202020202020267
:1001600002020202020202020A0A0A0A0A0A02023F
:10017000020042220000000000000202020202020D
:10018000828282828282020000000002000000025D
:100190000000000200000002000000000002000059
:1001A0000000000200000002000000000001010148
:1001B000010000000000000000000000000000003E
:1001C000020202020202020202020202020202020F
:1001D00002020202020202020202020202020202FF
:1001E00002020202020202020202020202020202EF
:1001F00002020202020202020202020202020202DF
:1002000002020202000202020002020202020202D2
:1002100002020000000202020202020202020202C4
:1002200002020202020202020202020202020202AE
:1002300002020202020202020000000200000202A8
:10024000000000000201020102000202000202029C
:10025000020202020202020202020202020202027E
:10026000020202020202020202020202020202026E
:10027000020A020200000000000002020202020262
:10028000020202020202020000000002000000025C
:100290000000000200000002000000000002000058
:1002A0000000000200000002080208020802080222
:1002B0000800000000000000000000000000000036
:1002C000020202020202020202020202020202020E
:1002D00002020202020202020202020202020202FE
:1002E00002020202020202020202020202020202EE
:1002F00002020202020202020202020202020202DE
:1003000002020202000202020002020202020202D1
:1003100002020000000202020202020202020202C3
:1003200002020202020202020202020202020202AD
:1003300002020202020202020000000280800202A7
:100340000200000002020202020202020202020293
:10035000020202020202020202020202020202027D
:10036000020202020202020202020202020202026D
:100370000202020200000000000002020202020269
:1003800002020202020202008080800200000002DB
:100390000000000200000002000000000002000057
:1003A0000000000200000002010101010101010141
:1003B00001000000000000000000000000808080BC
:1003C000020202020202020202020202020202020D
:1003D00002020202020202020202020202020202FD
:1003E00002020202020202020202020202020202ED
:1003F00002020202020202020202020202020202DD
:1004000002020202000202020002020202020202D0
:1004100002020000000202020202020202020202C2
:1004200002020202020202020202020202020202AC
:1004300002020202020202020202020200000202A0
:100440000200000002020202020202020202020292
:10045000020202020202020202020202020202027C
:10046000020202020202020202020202020202026C
:100470000202020200000000000002020202020268
:1004800002020202020202000000000280808002DA
:100490000000000200000002000000000002000056
:1004A0000000000200000002000000000000000048
:1004B000000000000000000000000000000000003C
:1004C000020202020202020202020202020202020C
:1004D00002020202020202020202020202020202FC
:1004E00002020202020202020202020202020202EC
:1004F00002020202020202020202020202020202DC
:1005000002020202000202020002020202020202CF
:1005100002020A0A020202020202020202020202AB
:1005200002020202020202020202020202020202AB
:10053000020202020202020202020202020202029B
:10054000020002000202020202020202020202028F
:10055000020202020202020202020202020202027B
:10056000020202020202020202020202020202026B
:100570000202020200000000000002020202020267
:100580000202020202020202000000020000000257
:100590000000000200000002000000000002000055
:1005A0000000000200000002000000000000000047
:1005B000000000000000000000000000000000003B
:1005C000020202020202020202020202020202020B
:1005D00002020202020202020202020202020202FB
:1005E00002020202020202020202020202020202EB
:1005F00002020202020202020202020202020202DB
:1006000002020202000202020002020202020202CE
:1006100002020202020202020202020202020202BA
:1006200002020202020202020202020202020202AA
:10063000020202020202020202020202020202029A
:10064000020002000202020202020202020202028E
:10065000020202020202020202020202020202027A
:10066000020202020202020202020202020202026A
:100670000202020200000000000002020202020266
:1006800002020202020202020A0A0A020000000238
:100690000000000200000002000000000002000054
:1006A0000000000200000002808080808080808046
:1006B00080000000000000000000000000000000BA
:1006C000020202020202020202020202020202020A
:1006D00002020202020202020202020202020202FA
:1006E00002020202020202020202020202020202EA
:1006F00002020202020202020202020202020202DA
:1007000002020202020202020002020202020202CB
:1007100002020202020202020202020202020202B9
:1007200002020202020202020202020202020202A9
:100730000202020202020202020202020202020299
:10074000020002000202020202020202020202028D
:100750000202020202020202020202020202020279
:100760000202020202020202020202020202020269
:100770000202020200000000000002020202020265
:10078000020202020202020202020202000000024F
:100790008080800280808002020000000002000051
:1007A0008080800280808002000000000000000045
:1007B00000808080000000808080808080000000B9
:1007C0000202020202020202020202020202020209
:1007D00002020202020202020202020202020202F9
:1007E00002020202020202020202020202020202E9
:1007F00002020202020202020202020202020202D9
:1008000002020202020202020002020202020202CA
:1008100002020202020202020202020202020202B8
:1008200002020202020202020202020202020202A8
:100830000202020202020202020202020202020298
:10084000020202000202020202020202020202028A
:100850000202020202020202020202020202020278
:100860000202020202020202020202020202020268
:10087000020202020200020200020202020202025C
:100880000202020202020202020202020202020248
:10089000000000020000000202020000000202024A
:1008A0000000000200000002020202020202020234
:1008B0000200000000000000000000000000000036
:1008C0000202020202020202020202020202020208
:1008D00002020202020202020202020202020202F8
:1008E00002020202020202020202020202020202E8
:1008F00002020202020202020202020202020202D8
:1009000002020202020202020202020202020202C7
:1009100002020202020202020202020202020202B7
:1009200002020202020202020202020202020202A7
:100930000202020202020202020202020202020297
:100940000202020202020202020202020202020287
:100950000202020202020202020202020202020277
:100960000202020202020202020202020202020267
:100970000202020202020202000202020202020259
:100980000202020202020202020202020202020247
:100990000000000200000002020200000002020249
:1009A0000000000200000002020202020202020233
:1009B000020000000000000000000000000202022F
:1009C0000202020202020202020202020202020207
:1009D00002020202020202020202020202020202F7
:1009E00002020202020202020202020202020202E7
:1009F00002020202020202020202020202020202D7
:100A000002020202020202020202020202020202C6
:100A100002020202020202020202020202020202B6
:100A200002020202020202020202020202020202A6
:100A30000202020202020202020202020202020296
:100A40000202020202020202020202020202020286
:100A50000202020202020202020202020202020276
:100A60000202020202020202020202020202020266
:100A70000202020202020202000202020202020258
:100A80000202020202020202020202020202020246
:100A90000000000200000002020200000002020248
:100AA0000000000200000002020202020202020232
:100AB000020000000000000000000000000202022E
:100AC0000202020202020202020202020202020206
:100AD00002020202020202020202020202020202F6
:100AE00002020202020202020202020202020202E6
:100AF00002020202020202020202020202020202D6
:100B000002020202020202020202020202020202C5
:100B100002020202020202020202020202020202B5
:100B200002020202020202020202020202020202A5
:100B30000202020202020202020202020202020295
:100B40000202020202020202020202020202020285
:100B50000202020202020202020202020202020275
:100B60000202020202020202020202020202020265
:100B70000202020202020202000202020202020257
:100B80000202020202020202020202020202020245
:100B900000000002000000020202808080020202C7
:100BA0000000000200000002020202020202020231
:100BB00002000000808080000000000000020202AD
:100BC0000202020202020202020202020202020205
:100BD00002020202020202020202020202020202F5
:100BE00002020202020202020202020202020202E5
:100BF00002020202020202020202020202020202D5
:100C000002020202020202020202020202020202C4
:100C100002020202020202020202020202020202B4
:100C200002020202020202020202020202020202A4
:100C30000202020202020202020202020202020294
:100C40000202020202020202020202020202020284
:100C50000202020202020202020202020202020274
:100C60000202020202020202020202020202020264
:100C70000202020202020202020202020202020254
:100C80000202020202020202020202020202020244
:100C90000000000200000002020200000002020246
:100CA00080808002000000020202020202020202B0
:100CB00002808080000000808080808080020202AC
:100CC0000202020202020202020202020202020204
:100CD00002020202020202020202020202020202F4
:100CE00002020202020202020202020202020202E4
:100CF00002020202020202020202020202020202D4
:100D000002020202020202020202020202020202C3
:100D100002020202020202020202020202020202B3
:100D200002020202020202020202020202020202A3
:100D30000202020202020202020202020202020293
:100D40000202020202020202020202020202020283
:100D50000202020202020202020202020202020273
:100D60000202020202020202020202020202020263
:100D70000202020202020202020202020202020253
:100D80000202020202020202020202020202020243
:100D90000202020202020202020200000002020239
:100DA0000000000202020202020202020202020229
:100DB000020000000000000000000000000202022B
:100DC0000202020202020202020202020202020203
:100DD00002020202020202020202020202020202F3
:100DE00002020202020202020202020202020202E3
:100DF00002020202020202020202020202020202D3
:100E000002020202020202020202020202020202C2
:100E100002020202020202020202020202020202B2
:100E200002020202020202020202020202020202A2
:100E30000202020202020202020202020202020292
:100E40000202020202020202020202020202020282
:100E50000202020202020202020202020202020272
:100E60000202020202020202020202020202020262
:100E70000202020202020202020202020202020252
:100E80000202020202020202020202020202020242
:100E900002020202020202020202828282020202B2
:100EA0000202020202020202020202020202020222
:100EB0000202020282828202020202020202020292
:100EC0000202020202020202020202020202020202
:100ED00002020202020202020202020202020202F2
:100EE00002020202020202020202020202020202E2
:100EF00002020202020202020202020202020202D2
:1011000002060202000202020002020202020202BF
:101110000A0A0000000A0A0A02020202020202028D
:10112000020202020202020202021212020202027F
:1011300002000000020000000000000200000202A5
:101140000000000001010101000000020002020293
:10115000020A0A0A02020202020202020202020257
:1011600002020202020202020A0A0A0A0A0A02022F
:1011700002004222000000000000020202020202FD
:10118000828282828282020000000002000000024D
:101190000000000200000002000000000002000049
:1011A0000000000200000002000000000001010138
:1011B000010000000000000000000000000000002E
:1011C00002020202020202020202020202020202FF
:1011D00002020202020202020202020202020202EF
:1011E00002020202020202020202020202020202DF
:1011F00002020202020202020202020202020202CF
:1012000002020202000202020002020202020202C2
:1012100002020000000202020202020202020202B4
:10122000020202020202020202020202020202029E
:101230000202020202020202000000020000020298
:10124000000000000102010200020002020202028C
:10125000020202020202020202020202020202026E
:10126000020202020202020202020202020202025E
:10127000020A020200000000000002020202020252
:10128000020202020202020000000002000000024C
:101290000000000200000002000000000002000048
:1012A000000000020000000208080208020802080C
:1012B000020000000000000000000000000000002C
:1012C00002020202020202020202020202020202FE
:1012D00002020202020202020202020202020202EE
:1012E00002020202020202020202020202020202DE
:1012F00002020202020202020202020202020202CE
:1013000002020202000202020002020202020202C1
:1013100002020000000202020202020202020202B3
:10132000020202020202020202020202020202029D
:101330000202020202020202000000028080020297
:101340000200000002020202020202020202020283
:10135000020202020202020202020202020202026D
:10136000020202020202020202020202020202025D
:101370000202020200000000000002020202020259
:1013800002020202020202008080800200000002CB
:101390000000000200000002000000000002000047
:1013A0000000000200000002010101010101010131
:1013B00001000000000000000000000000808080AC
:1013C00002020202020202020202020202020202FD
:1013D00002020202020202020202020202020202ED
:1013E00002020202020202020202020202020202DD
:1013F00002020202020202020202020202020202CD
:1014000002020202000202020002020202020202C0
:1014100002020000000202020202020202020202B2
:10142000020202020202020202020202020202029C
:101430000202020202020202020202020000020290
:101440000200000002020202020202020202020282
:10145000020202020202020202020202020202026C
:10146000020202020202020202020202020202025C
:101470000202020200000000000002020202020258
:1014800002020202020202000000000280808002CA
:101490000000000200000002000000000002000046
:1014A0000000000200000002000000000000000038
:1014B000000000000000000000000000000000002C
:1014C00002020202020202020202020202020202FC
:1014D00002020202020202020202020202020202EC
:1014E00002020202020202020202020202020202DC
:1014F00002020202020202020202020202020202CC
:1015000002020202000202020002020202020202BF
:1015100002020A0A0202020202020202020202029B
:10152000020202020202020202020202020202029B
:10153000020202020202020202020202020202028B
:10154000020002000202020202020202020202027F
:10155000020202020202020202020202020202026B
:10156000020202020202020202020202020202025B
:101570000202020200000000000002020202020257
:101580000202020202020202000000020000000247
:101590000000000200000002000000000002000045
:1015A0000000000200000002000000000000000037
:1015B000000000000000000000000000000000002B
:1015C00002020202020202020202020202020202FB
:1015D00002020202020202020202020202020202EB
:1015E00002020202020202020202020202020202DB
:1015F00002020202020202020202020202020202CB
:1016000002020202000202020002020202020202BE
:1016100002020202020202020202020202020202AA
:10162000020202020202020202020202020202029A
:10163000020202020202020202020202020202028A
:10164000020002000202020202020202020202027E
:10165000020202020202020202020202020202026A
:10166000020202020202020202020202020202025A
:101670000202020200000000000002020202020256
:1016800002020202020202020A0A0A020000000228
:101690000000000200000002000000000002000044
:1016A0000000000200000002808080808080808036
:1016B00080000000000000000000000000000000AA
:1016C00002020202020202020202020202020202FA
:1016D00002020202020202020202020202020202EA
:1016E00002020202020202020202020202020202DA
:1016F00002020202020202020202020202020202CA
:1017000002020202020202020002020202020202BB
:1017100002020202020202020202020202020202A9
:101720000202020202020202020202020202020299
:101730000202020202020202020202020202020289
:10174000020002000202020202020202020202027D
:101750000202020202020202020202020202020269
:101760000202020202020202020202020202020259
:101770000202020200000000000002020202020255
:10178000020202020202020202020202000000023F
:101790008080800280808002020000000002000041
:1017A0008080800280808002000000000000000035
:1017B00000808080000000808080808080000000A9
:1017C00002020202020202020202020202020202F9
:1017D00002020202020202020202020202020202E9
:1017E00002020202020202020202020202020202D9
:1017F00002020202020202020202020202020202C9
:1018000002020202020202020002020202020202BA
:1018100002020202020202020202020202020202A8
:101820000202020202020202020202020202020298
:101830000202020202020202020202020202020288
:10184000020202000202020202020202020202027A
:101850000202020202020202020202020202020268
:101860000202020202020202020202020202020258
:10187000020202020200020200020202020202024C
:101880000202020202020202020202020202020238
:10189000000000020000000202020000000202023A
:1018A0000000000200000002020202020202020224
:1018B0000200000000000000000000000000000026
:1018C00002020202020202020202020202020202F8
:1018D00002020202020202020202020202020202E8
:1018E00002020202020202020202020202020202D8
:1018F00002020202020202020202020202020202C8
:1019000002020202020202020202020202020202B7
:1019100002020202020202020202020202020202A7
:101920000202020202020202020202020202020297
:101930000202020202020202020202020202020287
:101940000202020202020202020202020202020277
:101950000202020202020202020202020202020267
:101960000202020202020202020202020202020257
:101970000202020202020202000202020202020249
:101980000202020202020202020202020202020237
:101990000000000200000002020200000002020239
:1019A0000000000200000002020202020202020223
:1019B000020000000000000000000000000202021F
:1019C00002020202020202020202020202020202F7
:1019D00002020202020202020202020202020202E7
:1019E00002020202020202020202020202020202D7
:1019F00002020202020202020202020202020202C7
:101A000002020202020202020202020202020202B6
:101A100002020202020202020202020202020202A6
:101A20000202020202020202020202020202020296
:101A30000202020202020202020202020202020286
:101A40000202020202020202020202020202020276
:101A50000202020202020202020202020202020266
:101A60000202020202020202020202020202020256
:101A70000202020202020202000202020202020248
:101A80000202020202020202020202020202020236
:101A90000000000200000002020200000002020238
:101AA0000000000200000002020202020202020222
:101AB000020000000000000000000000000202021E
:101AC00002020202020202020202020202020202F6
:101AD00002020202020202020202020202020202E6
:101AE00002020202020202020202020202020202D6
:101AF00002020202020202020202020202020202C6
:101B000002020202020202020202020202020202B5
:101B100002020202020202020202020202020202A5
:101B20000202020202020202020202020202020295
:101B30000202020202020202020202020202020285
:101B40000202020202020202020202020202020275
:101B50000202020202020202020202020202020265
:101B60000202020202020202020202020202020255
:101B70000202020202020202000202020202020247
:101B80000202020202020202020202020202020235
:101B900000000002000000020202808080020202B7
:101BA0000000000200000002020202020202020221
:101BB000020000008080800000000000000202029D
:101BC00002020202020202020202020202020202F5
:101BD00002020202020202020202020202020202E5
:101BE00002020202020202020202020202020202D5
:101BF00002020202020202020202020202020202C5
:101C000002020202020202020202020202020202B4
:101C100002020202020202020202020202020202A4
:101C20000202020202020202020202020202020294
:101C30000202020202020202020202020202020284
:101C40000202020202020202020202020202020274
:101C50000202020202020202020202020202020264
:101C60000202020202020202020202020202020254
:101C70000202020202020202020202020202020244
:101C80000202020202020202020202020202020234
:101C90000000000200000002020200000002020236
:101CA00080808002000000020202020202020202A0
:101CB000028080800000008080808080800202029C
:101CC00002020202020202020202020202020202F4
:101CD00002020202020202020202020202020202E4
:101CE00002020202020202020202020202020202D4
:101CF00002020202020202020202020202020202C4
:101D000002020202020202020202020202020202B3
:101D100002020202020202020202020202020202A3
:101D20000202020202020202020202020202020293
:101D30000202020202020202020202020202020283
:101D40000202020202020202020202020202020273
:101D50000202020202020202020202020202020263
:101D60000202020202020202020202020202020253
:101D70000202020202020202020202020202020243
:101D80000202020202020202020202020202020233
:101D90000202020202020202020200000002020229
:101DA0000000000202020202020202020202020219
:101DB000020000000000000000000000000202021B
:101DC00002020202020202020202020202020202F3
:101DD00002020202020202020202020202020202E3
:101DE00002020202020202020202020202020202D3
:101DF00002020202020202020202020202020202C3
:101E000002020202020202020202020202020202B2
:101E100002020202020202020202020202020202A2
:101E20000202020202020202020202020202020292
:101E30000202020202020202020202020202020282
:101E40000202020202020202020202020202020272
:101E50000202020202020202020202020202020262
:101E60000202020202020202020202020202020252
:101E70000202020202020202020202020202020242
:101E80000202020202020202020202020202020232
:101E900002020202020202020202828282020202A2
:101EA0000A0A0A02020202020202020202020202FA
:101EB000020A0A0A8282820A0A0A0A0A0A0202023A
:101EC00002020202020202020202020202020202F2
:101ED00002020202020202020202020202020202E2
:101EE00002020202020202020202020202020202D2
:101EF00002020202020202020202020202020202C2
:101F000002020202020202020202020202020202B1
:101F100002020202020202020202020202020202A1
:101F20000202020202020202020202020202020291
:101F30000202020202020202020202020202020281
:101F40000202020202020202020202020202020271
:101F50000202020202020202020202020202020261
:101F60000202020202020202020202020202020251
:101F70000202020202020202020202020202020241
:101F80000202020202020202020202020202020231
:101F90000202020202020202020202020202020221
:101FA0000202020202020202020202020202020211
:101FB0000202020202020202020202020202020201
:101FC00002020202020202020202020202020202F1
:101FD00002020202020202020202020202020202E1
:101FE00002020202020202020202020202020202D1
:101FF00002020202020202020202020202020202C1
:00000001FF
