:10000000406001000000000000000000000000004F
:1000100000000000000000000000000000000000E0
:1000200000000000000000000000000000000000D0
:1000300000000000000000000000000000000000C0
:1000400000000000000000000000000000000000B0
:1000500000000000000000000000000000000000A0
:100060000000000000000000000000000000000090
:100070000000000000000000000000000000000080
:100080000000000000000000000000000000000070
:100090000000000000000000000000000000000060
:1000A0000000000000000000000000000000000050
:1000B0000000000000000000000000000000000040
:1000C0000000000000000000000000000000000030
:1000D0000000000000000000000000000000000020
:1000E0000000000000000000000000000000000010
:1000F0000000000000000000000000000000000000
:1001000040940D40850D40A40D40780440BF04404C
:10011000F40440AB0D40D50E403005403A08409FF6
:100120000C40F609405A0A40920A40A20B40D50BF7
:10013000401A0C40300640DB06403807408F07402D
:10014000530B407207408B070000000000000000C6
:10015000000000000000000000000000000000009F
:1001600033FF37FE10031404FF10151404FF102191
:10017000146E9D1000147A9D1004146F9D109E142F
:10018000789D31F4350E43AB0D3115350F43AB0D72
:1001900043C70D3200369D430F0E164889011445A2
:1001A0009D11452548F00112459D114425485C02EA
:1001B00012459D11492548C90212459D1146254801
:1001C000190312459D11422548F00312459D114720
:1001D0002548470412459D113F25485A0412459D64
:1001E000114825485A043118350F43AB0D40890199
:1001F000433A0E4AE60143BE0E43CC0E103A438505
:100200000D43C10D5143D50E43C10D43940D110D46
:100210002548440212449D112E2548560243850D5F
:10022000431B0E4A4B0214459D43940D43850D43D9
:100230001B0E4A4B0214449D12459D282828281362
:10024000449D231D5443B60D40F901103F43850DD5
:1002500043B60D40F90143B60D408901433A0E4AB9
:10026000E60143BE0E101014469D43CC0E43C10D53
:1002700043C70E101014459D1543D50E43C10D12F2
:10028000459D2714459D49780243C10D1010144522
:100290009D161120254CA102117F254AA10240A3E1
:1002A00002102E43850D12459D2714459D4991024C
:1002B00043B60D12469D2714469D496A0243940D8C
:1002C000112E254889014065024378044A0F0343F3
:1002D000640410EC1417FF436E043100359E43CDC7
:1002E00004311C350F43AB0D3136359E10141446C6
:1002F0009D1514459D1543850D12459D43850D1291
:10030000469D2714469D49F10243B60D40890131AF
:1003100024350F43AB0D408901312F350F43AB0D11
:1003200043940D43850D43B60D12449D1159254943
:1003300089014378044A0F03435C0D105014009E5A
:10034000103814019E100214029E100014039E1017
:100350002514049E100014059E100014479D43F4BC
:1003600004435C0D3100359E102E19100B14449D72
:1003700010201912449D2714449D49700343C20361
:10038000102E19102E19100A14449D102019124411
:100390009D2714449D498B0343C203102114479D9C
:1003A00043F404435C0D102214479D43F4041247A8
:1003B0009D261125254CA8033148350F43AB0D4030
:1003C00089011021191000191919100019100819A4
:1003D0001000191910001919191910021910071411
:1003E000449D10001912449D2714449D49E2034284
:1003F0004378044A0F03100014479D3100359E4393
:10040000BF0412009E115025493D0412019E11386F
:1004100025493D0412039E483D0414469D100114D5
:10042000479D3100354043BF0412479D2614479D28
:1004300012469D2714469D492604400040315435FC
:100440000F43AB0D408901433A0E4AE60143BE0E0D
:1004500043B60D4143B60D4089013164350F43ABBE
:100460000D4089011217FF118022496404421217BE
:10047000FF110822486E0442100014489D14499D43
:1004800043640410E01416FF10011411FF10EF1460
:1004900017FF4364041217FF11012248A00473429E
:1004A000724212479D1413FF12489D1414FF124903
:1004B0009D1415FF10E01416FF10011412FF4243A3
:1004C000640443A20410201417FF436E04100014A8
:1004D000449D1210FF1912449D2614449D49D204D4
:1004E000100014449D1210FF1912449D2614449DBF
:1004F00049E504423100359E43640443A2041030B0
:100500001417FF436E04100014449D151410FF12BD
:10051000449D2614449D490B05100014449D151458
:1005200010FF12449D2614449D491E054364044255
:100530004358054A430512709D1101254943057230
:1005400040440573434805421021146E9D10001469
:100550007A9D1004146F9D42126F9D14469D126E79
:100560009D14409D127A9D14419D12409D14479DFB
:1005700012419D14489D100014499D10005E127890
:100580009D5F43BF0410006012789D6110101444F9
:100590009D314A359D100114439D100C14429D1647
:1005A00014459D1513459D2548B005100014439D25
:1005B00012429D2714429D499F051614479D16140B
:1005C000489D1614499D161614589D1614599D16CB
:1005D00016161616161614459D100714429D16126F
:1005E000429D2714429D49DE0512459D482C061464
:1005F000709D12439D48070612709D110125482EDB
:1006000006110225482E0612449D2714449D499147
:100610000512409D2614409D49220612419D261434
:10062000419D12469D2714469D496A0573427242B8
:100630006814719D6914729D1021146E9D10001430
:100640007A9D1004146F9D12719D6012729D61520B
:10065000112F25495706556A14719D6B14729D31EF
:100660004A359D100C14429D10201912429D2714EA
:10067000429D496806314A359D12719D6012729DF6
:1006800061100C14429D5248A306112F2548AD0657
:1006900012429D489F06521912429D2714429D55B1
:1006A0004086066A14719D6B14729D7242556A14DD
:1006B000719D6B14729D4358054AD90612709D11A5
:1006C000022549D90612479D146E9D12489D147A41
:1006D0009D1004146F9D405F067342324A369D1090
:1006E0000C14449D10201A12449D2714449D49E483
:1006F00006324A369D100C14449D51483707144564
:100700009D11202548370712449D48370712459D03
:100710001161254C2807107A13459D254C28071296
:10072000459D11202114459D12459D1A12449D2777
:1007300014449D5440FA06424330064A6D07124A5B
:100740009D112025485C074358054A6D0712709D8E
:10075000110225496D0712479D406507127A9D14C5
:10076000489D126E9D4372074348057242434805F7
:10077000734214739D12489D14799D100414749D46
:10078000100014759D109E14789D4214789D42129D
:10079000749D48380812739D14479D12799D144822
:1007A0009D100014499D10005E12789D5F43BF04A8
:1007B00012759D11072228282828286012759D2966
:1007C000292913789D2061314A359D100C14449DD0
:1007D000161912449D2714449D49D0071614479DAD
:1007E0001614489D1614499D161614589D16145932
:1007F0009D1616161616165214709D12759D261407
:10080000759D111025492508100014759D12739DC2
:100810002614739D491E0812799D2614799D127421
:100820009D2714749D12709D48330811FF25488F31
:10083000077242100014749D7342434108434805F7
:100840004212589D145A9D12599D145B9D435805A0
:100850004CF409125A9D14589D125B9D14599D1019
:100860000014479D14489D14499D3100359E43BF97
:100870000412049E14409D14479D12059E14419D30
:1008800014489D100014499D12569D5E12579D5F9D
:10089000100014469D12589D14449D12599D1445F4
:1008A0009D12449D13459D2348E00843F8041247D8
:1008B0009D2614479D49BF0812489D2614489D1245
:1008C000469D2614469D12459D1102214CD50814C3
:1008D000459D40A108100014449D14459D40A10869
:1008E00012049E13469D2014049E12059E4CF1088E
:1008F0002614059E100014479D14489D14499D43DD
:10090000F404126F9D14469D126E9D14429D127A3E
:100910009D147B9D12429D14479D127B9D14489D02
:10092000100014499D3100359E43BF043200369EAD
:10093000101014449D6A14569D6B14579D10181482
:10094000439D1612439D2714439D49420952488EE8
:100950000911FF25488E09100814439D1612439D66
:100960002714439D495C0912449D2714449D493531
:100970000912429D2614429D498209127B9D26142C
:100980007B9D12469D2714469D49140973421256B9
:100990009D6012579D61314A359D100C14439D1581
:1009A0001A12439D2714439D499F0912409D1A1214
:1009B000419D1A10001A1A12589D1A12599D1A10A8
:1009C000001A1A10001A1A1A1A10011A10071443E2
:1009D0009D10001A12439D2714439D49D1091242CC
:1009E0009D14479D127B9D14489D100014499D4302
:1009F000F4047242734243FD094348054210001457
:100A0000469D12589D14449D12599D14459D1244B3
:100A10009D13459D2348390A12469D2614469D1272
:100A2000459D1102214C2E0A14459D400E0A1000CE
:100A300014449D14459D400E0A100014479D14480F
:100A40009D14499D3100359E43BF0412049E1440FD
:100A50009D12059E14419D40E0086814619D691433
:100A6000629D4330054A900A12479D145C9D1248CE
:100A70009D145D9D12499D145E9D12589D145F9DAD
:100A800012599D14609D100014659D14669D72425C
:100A90007342125F9D13609D23499E0A7342126543
:100AA0009D13669D2349AB0A43EE0A12639D5E12B5
:100AB000649D5F1514449D6814639D6914649D12C0
:100AC000659D11012114659D4AD40A12669D11018C
:100AD0002114669D125F9D110121145F9D4AE90A50
:100AE00012609D11012114609D12449D7242125C9E
:100AF0009D14479D125D9D14489D125E9D14499D55
:100B000012619D5E12629D5F43BF04125C9D2614BC
:100B10005C9D49260B125D9D26145D9D49260B1296
:100B20005E9D26145E9D12619D14639D12629D144C
:100B3000649D12609D1102254A480B125F9D146549
:100B40009D12609D14669D42100014659D10021454
:100B5000669D4212589D14769D12599D14779D12E0
:100B6000769D13779D2348A10B43BF0412479D2612
:100B700014479D49870B12489D2614489D49870BB1
:100B800012499D2614499D12779D1102214C960B06
:100B900014779D405F0B100014769D14779D405F85
:100BA0000B42100014479D14489D14499D31003597
:100BB0009E43BF0412049E14679D12059E14689DF7
:100BC000100014699D146A9D146B9D146C9D146D26
:100BD0009D43790C4214449D126A9D5E109E136BD6
:100BE0009D205F12449D1D126A9D110120146A9D73
:100BF000126B9D4CFA0B26146B9D126C9D110120FB
:100C0000146C9D126D9D4C0D0C26146D9D126B9DE8
:100C100011022549190C433D0C42126A9D136B9D2C
:100C20002348270C433D0C126C9D14589D126D9D5A
:100C300014599D43A60C43FD094348054212679D84
:100C400014479D12689D14489D12699D14499D4347
:100C5000F40412679D2614679D496D0C12689D2649
:100C600014689D496D0C12699D2614699D1000142D
:100C70006A9D146B9D43790C423100359E1002141D
:100C8000469D100014449D10001912449D271444E1
:100C90009D49870C12469D2714469D49820C42436C
:100CA000A60C43480542126F9D14469D126E9D147A
:100CB000409D12409D14479D100014489D14499D6D
:100CC0003100359E43BF043200369E101014449DFF
:100CD000314A359D100114439D100C14429D161489
:100CE000459D1513459D2548EF0C100014439D129A
:100CF000429D2714429D49DE0C100C14429D161291
:100D0000429D2714429D49FE0C52485A0D1101255F
:100D1000492F0D12439D482F0D10FF1E12409D14A8
:100D2000479D100014489D14499D43F404724210DD
:100D30000814429D1612429D2714429D49340D12FB
:100D4000449D2714449D49D00C12409D2614409D7B
:100D500012469D2714469D49B20C73423100359EC0
:100D6000100014449D10001912449D2614449D49FE
:100D7000650D100014449D10001912449D26144462
:100D80009D49770D42701204FF11022248860D71B1
:100D90001405FF421204FF11012248940D1205FFB1
:100DA00014449D421204FF110122421548B50D431F
:100DB000850D40AB0D42100D43850D100A43850D86
:100DC00042102043850D423200369D43940D110D93
:100DD0002548080E12449D11082548F00D12449D27
:100DE000117F2548F00D12449D43850D1A40CB0D0F
:100DF0006A11002548CB0D59100843850D43C10DDC
:100E0000100843850D40CB0D10001E43B60D425215
:100E1000112025491A0E55400F0E421130214C3831
:100E20000E110A254C360E110721110A254C380ED9
:100E30001110254A380E72427342430F0E100014EF
:100E4000429D14439D14459D5248A80E11202548EB
:100E5000A80E55431B0E4ABC0E14469D12429D28F7
:100E600014429D12439D2A14439D12429D28144210
:100E70009D12439D2A14439D12429D2814429D12A7
:100E8000439D2A14439D12429D2814429D12439D66
:100E90002A14439D12429D13469D2314429D1245E0
:100EA0009D2614459D40480E12459D48BC0E124299
:100EB0009D14409D12439D14419D72427342124005
:100EC0009D5E12419D5F4268606961426943D50E33
:100ED0006843D50E42702929292943DE0E71110F6E
:100EE00022110A254AED0E11302040F00E11372054
:100EF00043850D420D0A503858204D4F4E49544FEE
:100F0000522056312E300D0A3F20464F5220484580
:100F10004C500D0A002A20003F0D0A004346204F86
:100F20004B3A20004346204552524F520D0A00468C
:100F30004F524D4154204346202D20535552453F9A
:100F40002028592F4E292000464F524D41545445D8
:100F5000440D0A004E4F204F53204F4E2043415224
:100F6000440D0A005038584D4F4E20434F4D4D41CF
:100F70004E445320202841414141203D2034204807
:100F8000455820444947495453293A0D0A452041C0
:100F900041414120204558414D494E452F4D4F4438
:100FA0004946592046524F4D204141414120285445
:100FB000595045204845583D5345542C2043523DF7
:100FC0004E4558542C202E3D45584954290D0A446D
:100FD0002041414141202044554D5020323536209A
:100FE00042595445532046524F4D204141414120E2
:100FF0002843523D4E45585420424C4F434B2C20E1
:101000002E3D45584954290D0A49202020202020F2
:1010100020494E49542043463A2053455420382D08
:101020004249542C204944454E544946592C20509D
:1010300052494E54204D4F44454C0D0A4620202025
:1010400020202020464F524D4154204346204153FA
:10105000205038584653202841534B5320592F4E87
:10106000290D0A4220202020202020424F4F5420CA
:101070004F5320494D4147452046524F4D2043464E
:1010800020544F2024343030300D0A472041414154
:1010900041202043414C4C204141414120284A53AA
:1010A000522C205254532052455455524E532048EE
:1010B000455245290D0A3F202F2048202020544822
:1010C00049532048454C500D0A0000000000000024
:1010D0000000000000000000000000000000000010
:1010E0000000000000000000000000000000000000
:1010F00000000000000000000000000000000000F0
:1011000000000000000000000000000000000000DF
:00000001FF
