:100000000808080808080808080808080808080870
:100010000808080808080808080808080808080860
:100020000808080808080808080808080808080850
:100030000808080808080808080808080808080840
:100040000808080808080808080808080808080830
:100050000808080808080808080808080808080820
:100060000808080808080808080808080808080810
:100070000808080808080808080808080808080800
:1000800008080808080808080808080808080808F0
:1000900008080808080808080808080808080808E0
:1000A00008080808080808080808080808080808D0
:1000B00008080808080808080808080808080808C0
:1000C00008080808080808080808080808080808B0
:1000D00008080808080808080808080808080808A0
:1000E0000808080808080808080808080808080890
:1000F0000808080808080808080808080808080880
:10010000000000000B0000001000000000000000D4
:100110000808080808090A0B00090A0B0001020375
:1001200020C060C0C0C000E0E0E0E0E000000000EF
:100130000008080800080808080808000808000067
:1001400008000B0808080808080808000800000054
:1001500000010203090A0B00111213000000010143
:100160000202030300000000010102020303000079
:10017000130B000008080808080800000000000031
:1001800020C060C0C0C008080808080008080800AF
:1001900008080800080808000808080808000808F7
:1001A00008080800080808000808080808080808DF
:1001B0000800000000000000000000000000000037
:1001C000000000000000000000000000000000002F
:1001D000000000000000000000000000000000001F
:1001E000000000000000000000000000000000000F
:1001F00000000000000000000000000000000000FF
:1002000000000000030000000000000000000000EB
:1002100000000808080000000000000000000000C6
:1002200000000000000000000000000000000000CE
:100230000001020300010203080808000303000094
:100240000813030808080808080808000800000048
:10025000000000000000000000000000000000009E
:10026000000000000000000000000000000000008E
:10027000000300000808080808080000000000004B
:100280000000000000000008010203000000000060
:1002900008080800080808000808080808000808F6
:1002A00008080800080808001300130013001300D2
:1002B000130000000000000000000000000000002B
:1002C000000000000000000000000000000000002E
:1002D000000000000000000000000000000000001E
:1002E000000000000000000000000000000000000E
:1002F00000000000000000000000000000000000FE
:1003000000000000000000001300000000000000DA
:1003100000000404040000000000000000000000D1
:1003200000000000000000000000000000000000CD
:1003300000000000000000000102030023C30000D1
:1003400000000B040000000000000000000000009E
:10035000000000000000000000000000000000009D
:10036000000000000000000000000000000000008D
:100370000000000004040404050400000000000064
:1003800000000000000000042424240001020300F7
:100390000505050005050500040405050500040420
:1003A0000404040005050500000000000000000032
:1003B000000000000000000000000000000000003D
:1003C000000000000000000000000000000000002D
:1003D000000000000000000000000000000000001D
:1003E000000000000000000000000000000000000D
:1003F00000000000000000000000000000000000FD
:10040000000000000B0000000000000000000000E1
:1004100000000404040000000000000000000000D0
:1004200000000000000000000000000000000000CC
:1004300000000000000000000102030003030000B0
:100440000013030400000000000000000000000092
:10045000000000000000000000000000000000009C
:10046000000000000000000000000000000000008C
:100470000000000004040404050400000000000063
:1004800000000000000000040102030024242400F6
:10049000050505000505050004040505050004041F
:1004A0000404040005050500000000000000000031
:1004B000000000000000000000000000000000003C
:1004C000000000000000000000000000000000002C
:1004D000000000000000000000000000000000001C
:1004E000000000000000000000000000000000000C
:1004F00000000000000000000000000000000000FC
:1005000000000000030000001300000000000000D5
:1005100000000404040000000000000000000000CF
:1005200000000000000000000000000000000000CB
:10053000000000000000000000000000E3E30000F5
:1005400000010000000000000000000000000000AA
:10055000000000000000000000000000000000009B
:10056000000000000000000000000000000000008B
:1005700000000000040B0C0C080C00000000000040
:100580000000000000000004E4E4E40001020300B5
:1005900008080800080808000808080808000404FB
:1005A000080808000808080000000000000000001B
:1005B000000000000000000000000000000000003B
:1005C000000000000000000000000000000000002B
:1005D000000000000000000000000000000000001B
:1005E000000000000000000000000000000000000B
:1005F00000000000000000000000000000000000FB
:10060000000000000B0000000000000000000000DF
:1006100000000000000000000000000000000000DA
:1006200000000000000000000000000000000000CA
:1006300000000000000000000000000000000000BA
:100640000000001300000000000000000000000097
:10065000000000000000000000000000000000009A
:10066000000000000000000000000000000000008A
:10067000000000000C03010208030000000000005D
:10068000000000000000000004040400E4E4E400B2
:1006900001020300010203000C0C080808000CEC26
:1006A0000404040001020300E0E0E0E0E0E0E0E038
:1006B000E00000000000000000000000000000005A
:1006C000000000000000000000000000000000002A
:1006D000000000000000000000000000000000001A
:1006E000000000000000000000000000000000000A
:1006F00000000000000000000000000000000000FA
:1007000000000000030000001300000000000000D3
:1007100000000000000000000000000000000000D9
:1007200000000000000000000000000000000000C9
:1007300000000000000000000000000000000000B9
:1007400000010000000000000000000000000000A8
:100750000000000000000000000000000000000099
:100760000000000000000000000000000000000089
:1007700000000000040B040404040000000000005A
:10078000000000000000000000000000040404005D
:100790002424240024242400640804040400040401
:1007A0002CCCCC0024242400000000000000000019
:1007B0000000000000000000000000000000000039
:1007C0000000000000000000000000000000000029
:1007D0000000000000000000000000000000000019
:1007E0000000000000000000000000000000000009
:1007F00000000000000000000000000000000000F9
:1008000000000000000000000000000000000000E8
:1008100000000000000000000000000000000000D8
:1008200000000000000000000000000000000000C8
:1008300000000000000000000000000000000000B8
:100840000000001300000000000000000000000095
:100850000000000000000000000000000000000098
:100860000000000000000000000000000000000088
:100870000000000013030102040300000000000058
:100880000000000000000000000000000000000068
:100890000102030001020300000404040400E4E474
:1008A0006060600001020300202020202020202022
:1008B0002000000000000000000000000000000018
:1008C0000000000000000000000000000000000028
:1008D0000000000000000000000000000000000018
:1008E0000000000000000000000000000000000008
:1008F00000000000000000000000000000000000F8
:1009000000000000000000000000000000000000E7
:1009100000000000000000000000000000000000D7
:1009200000000000000000000000000000000000C7
:1009300000000000000000000000000000000000B7
:1009400000000004000000000000000000000000A3
:100950000000000000000000000000000000000097
:100960000000000000000000000000000000000087
:1009700000000000130400000C0000000000000054
:100980000000000000000000000000000000000067
:10099000E4E4E400E4E4E40000000C0C0C000000DB
:1009A00004040400E4E4E40000000000000000008F
:1009B0000000000000000000000000000000000037
:1009C0000000000000000000000000000000000027
:1009D0000000000000000000000000000000000017
:1009E0000000000000000000000000000000000007
:1009F00000000000000000000000000000000000F7
:100A000000000000000000000000000000000000E6
:100A100000000000000000000000000000000000D6
:100A200000000000000000000000000000000000C6
:100A300000000000000000000000000000000000B6
:100A400000000000000000000000000000000000A6
:100A50000000000000000000000000000000000096
:100A60000000000000000000000000000000000086
:100A700000000000000C00000D000000000000005D
:100A80000000000000000000000000000000000066
:100A90000C0C0C000D0D0D000000050505000000FC
:100AA00024C4C40004040400E0E0E0E0E0E0E0E08E
:100AB000E000000000000000000000000000000056
:100AC0000000000000000000000000000000000026
:100AD0000000000000000000000000000000000016
:100AE0000000000000000000000000000000000006
:100AF00000000000000000000000000000000000F6
:100B000000000000000000000000000000000000E5
:100B100000000000000000000000000000000000D5
:100B200000000000000000000000000000000000C5
:100B300000000000000000000000000000000000B5
:100B400000000004000000000000000000000000A1
:100B50000000000000000000000000000000000095
:100B60000000000000000000000000000000000085
:100B7000000000000004000004000000000000006D
:100B80000000000000000000000000000000000065
:100B90000D0D0D000C0C0C0000002DCDCD00000043
:100BA000000000000D0D0D0000000000000000001E
:100BB0000000000000000000000000000000000035
:100BC0000000000000000000000000000000000025
:100BD0000000000000000000000000000000000015
:100BE0000000000000000000000000000000000005
:100BF00000000000000000000000000000000000F5
:100C000000000000000000000000000000000000E4
:100C100000000000000000000000000000000000D4
:100C200000000000000000000000000000000000C4
:100C300000000000000000000000000000000000B4
:100C400000000000000000000000000000000000A4
:100C50000000000000000000000000000000000094
:100C60000000000000000000000000000000000084
:100C7000000000000000000005000000000000006F
:100C80000000000000000000000000000000000064
:100C9000040404000505050000000404040000002D
:100CA00000000000040404000B0B0B0B0B0B0B0BE0
:100CB0000B00000000000000000000000000000029
:100CC0000000000000000000000000000000000024
:100CD0000000000000000000000000000000000014
:100CE0000000000000000000000000000000000004
:100CF00000000000000000000000000000000000F4
:100D000000000000000000000000000000000000E3
:100D100000000000000000000000000000000000D3
:100D200000000000000000000000000000000000C3
:100D300000000000000000000000000000000000B3
:100D400000000000000000000000000000000000A3
:100D50000000000000000000000000000000000093
:100D60000000000000000000000000000000000083
:100D70000000000000000000000000000000000073
:100D80000000000000000000000000000000000063
:100D90000505050004040400000005050500000029
:100DA000000000000505050003030303030303031C
:100DB0000300000000000000000000000000000030
:100DC0000000000000000000000000000000000023
:100DD0000000000000000000000000000000000013
:100DE0000000000000000000000000000000000003
:100DF00000000000000000000000000000000000F3
:100E000000000000000000000000000000000000E2
:100E100000000000000000000000000000000000D2
:100E200000000000000000000000000000000000C2
:100E300000000000000000000000000000000000B2
:100E400000000000000000000000000000000000A2
:100E50000000000000000000000000000000000092
:100E60000000000000000000000000000000000082
:100E70000000000000000000000000000000000072
:100E80000000000000000000000000000000000062
:100E90000000000000000000000025C5C5000000A3
:100EA0000000000000000000000000000000000042
:100EB0000000000000000000000000000000000032
:100EC0000000000000000000000000000000000022
:100ED0000000000000000000000000000000000012
:10110000000000000B0000001000000000000000C4
:101110000808080808090A0B00090A0B0001020365
:1011200020C060C0C0C000E0E0E0E0E000000000DF
:101130000008080800080808080808000808000057
:1011400008000B0808080808080808000800000044
:1011500000010203090A0B00111213000000010133
:101160000202030300000000010102020303000069
:10117000130B000008080808080800000000000021
:1011800020C060C0C0C0080808080800080808009F
:1011900008080800080808000808080808000808E7
:1011A00008080800080808000808080808080808CF
:1011B0000800000000000000000000000000000027
:1011C000000000000000000000000000000000001F
:1011D000000000000000000000000000000000000F
:1011E00000000000000000000000000000000000FF
:1011F00000000000000000000000000000000000EF
:1012000000000000030000000000000000000000DB
:1012100000000808080000000000000000000000B6
:1012200000000000000000000000000000000000BE
:101230000001020300010203080808000303000084
:101240000813030808080808080808000800000038
:10125000000000000000000000000000000000008E
:10126000000000000000000000000000000000007E
:10127000000300000808080808080000000000003B
:101280000000000000000008010203000000000050
:1012900008080800080808000808080808000808E6
:1012A00008080800080808001313001300130013AF
:1012B000000000000000000000000000000000002E
:1012C000000000000000000000000000000000001E
:1012D000000000000000000000000000000000000E
:1012E00000000000000000000000000000000000FE
:1012F00000000000000000000000000000000000EE
:1013000000000000000000001300000000000000CA
:1013100000000404040000000000000000000000C1
:1013200000000000000000000000000000000000BD
:1013300000000000000000000102030023C30000C1
:1013400000000B040000000000000000000000008E
:10135000000000000000000000000000000000008D
:10136000000000000000000000000000000000007D
:101370000000000004040404050400000000000054
:1013800000000000000000042424240001020300E7
:101390000505050005050500040405050500040410
:1013A0000404040005050500000000000000000022
:1013B000000000000000000000000000000000002D
:1013C000000000000000000000000000000000001D
:1013D000000000000000000000000000000000000D
:1013E00000000000000000000000000000000000FD
:1013F00000000000000000000000000000000000ED
:10140000000000000B0000000000000000000000D1
:1014100000000404040000000000000000000000C0
:1014200000000000000000000000000000000000BC
:1014300000000000000000000102030003030000A0
:101440000013030400000000000000000000000082
:10145000000000000000000000000000000000008C
:10146000000000000000000000000000000000007C
:101470000000000004040404050400000000000053
:1014800000000000000000040102030024242400E6
:10149000050505000505050004040505050004040F
:1014A0000404040005050500000000000000000021
:1014B000000000000000000000000000000000002C
:1014C000000000000000000000000000000000001C
:1014D000000000000000000000000000000000000C
:1014E00000000000000000000000000000000000FC
:1014F00000000000000000000000000000000000EC
:1015000000000000030000001300000000000000C5
:1015100000000404040000000000000000000000BF
:1015200000000000000000000000000000000000BB
:1015300000000000000000000000000003E30000C5
:10154000000100000000000000000000000000009A
:10155000000000000000000000000000000000008B
:10156000000000000000000000000000000000007B
:1015700000000000040B0C0C080C00000000000030
:101580000000000000000004040404000102030045
:1015900008080800080808000808080808000404EB
:1015A000080808000808080000000000000000000B
:1015B000000000000000000000000000000000002B
:1015C000000000000000000000000000000000001B
:1015D000000000000000000000000000000000000B
:1015E00000000000000000000000000000000000FB
:1015F00000000000000000000000000000000000EB
:10160000000000000B0000000000000000000000CF
:1016100000000000000000000000000000000000CA
:1016200000000000000000000000000000000000BA
:1016300000000000000000000000000000000000AA
:101640000000001300000000000000000000000087
:10165000000000000000000000000000000000008A
:10166000000000000000000000000000000000007A
:10167000000000000C03010208030000000000004D
:101680000000000000000000040404000404040042
:1016900001020300010203000C0C080808000CEC16
:1016A0000404040001020300E0E0E0E0E0E0E0E028
:1016B000E00000000000000000000000000000004A
:1016C000000000000000000000000000000000001A
:1016D000000000000000000000000000000000000A
:1016E00000000000000000000000000000000000FA
:1016F00000000000000000000000000000000000EA
:1017000000000000030000001300000000000000C3
:1017100000000000000000000000000000000000C9
:1017200000000000000000000000000000000000B9
:1017300000000000000000000000000000000000A9
:101740000001000000000000000000000000000098
:101750000000000000000000000000000000000089
:101760000000000000000000000000000000000079
:1017700000000000040B040404040000000000004A
:10178000000000000000000000000000040404004D
:1017900024242400242424006408040404000404F1
:1017A0002CCCCC0024242400000000000000000009
:1017B0000000000000000000000000000000000029
:1017C0000000000000000000000000000000000019
:1017D0000000000000000000000000000000000009
:1017E00000000000000000000000000000000000F9
:1017F00000000000000000000000000000000000E9
:1018000000000000000000000000000000000000D8
:1018100000000000000000000000000000000000C8
:1018200000000000000000000000000000000000B8
:1018300000000000000000000000000000000000A8
:101840000000001300000000000000000000000085
:101850000000000000000000000000000000000088
:101860000000000000000000000000000000000078
:101870000000000013030102040300000000000048
:101880000000000000000000000000000000000058
:10189000010203000102030000040404040004E444
:1018A0006060600001020300202020202020202012
:1018B0002000000000000000000000000000000008
:1018C0000000000000000000000000000000000018
:1018D0000000000000000000000000000000000008
:1018E00000000000000000000000000000000000F8
:1018F00000000000000000000000000000000000E8
:1019000000000000000000000000000000000000D7
:1019100000000000000000000000000000000000C7
:1019200000000000000000000000000000000000B7
:1019300000000000000000000000000000000000A7
:101940000000000400000000000000000000000093
:101950000000000000000000000000000000000087
:101960000000000000000000000000000000000077
:1019700000000000130400000C0000000000000044
:101980000000000000000000000000000000000057
:10199000040404000404040000000C0C0C0000000B
:1019A000040404000404040000000000000000001F
:1019B0000000000000000000000000000000000027
:1019C0000000000000000000000000000000000017
:1019D0000000000000000000000000000000000007
:1019E00000000000000000000000000000000000F7
:1019F00000000000000000000000000000000000E7
:101A000000000000000000000000000000000000D6
:101A100000000000000000000000000000000000C6
:101A200000000000000000000000000000000000B6
:101A300000000000000000000000000000000000A6
:101A40000000000000000000000000000000000096
:101A50000000000000000000000000000000000086
:101A60000000000000000000000000000000000076
:101A700000000000000C00000D000000000000004D
:101A80000000000000000000000000000000000056
:101A90000C0C0C000D0D0D000000050505000000EC
:101AA00024C4C4000404040000000000000000007E
:101AB0000000000000000000000000000000000026
:101AC0000000000000000000000000000000000016
:101AD0000000000000000000000000000000000006
:101AE00000000000000000000000000000000000F6
:101AF00000000000000000000000000000000000E6
:101B000000000000000000000000000000000000D5
:101B100000000000000000000000000000000000C5
:101B200000000000000000000000000000000000B5
:101B300000000000000000000000000000000000A5
:101B40000000000400000000000000000000000091
:101B50000000000000000000000000000000000085
:101B60000000000000000000000000000000000075
:101B7000000000000004000004000000000000005D
:101B80000000000000000000000000000000000055
:101B90000D0D0D000C0C0C0000002DCDCD00000033
:101BA000000000000D0D0D0000000000000000000E
:101BB0000000000000000000000000000000000025
:101BC0000000000000000000000000000000000015
:101BD0000000000000000000000000000000000005
:101BE00000000000000000000000000000000000F5
:101BF00000000000000000000000000000000000E5
:101C000000000000000000000000000000000000D4
:101C100000000000000000000000000000000000C4
:101C200000000000000000000000000000000000B4
:101C300000000000000000000000000000000000A4
:101C40000000000000000000000000000000000094
:101C50000000000000000000000000000000000084
:101C60000000000000000000000000000000000074
:101C7000000000000000000005000000000000005F
:101C80000000000000000000000000000000000054
:101C9000040404000505050000000404040000001D
:101CA00000000000040404000B0B0B0B0B0B0B0BD0
:101CB0000B00000000000000000000000000000019
:101CC0000000000000000000000000000000000014
:101CD0000000000000000000000000000000000004
:101CE00000000000000000000000000000000000F4
:101CF00000000000000000000000000000000000E4
:101D000000000000000000000000000000000000D3
:101D100000000000000000000000000000000000C3
:101D200000000000000000000000000000000000B3
:101D300000000000000000000000000000000000A3
:101D40000000000000000000000000000000000093
:101D50000000000000000000000000000000000083
:101D60000000000000000000000000000000000073
:101D70000000000000000000000000000000000063
:101D80000000000000000000000000000000000053
:101D90000505050004040400000005050500000019
:101DA000000000000505050003030303030303030C
:101DB0000300000000000000000000000000000020
:101DC0000000000000000000000000000000000013
:101DD0000000000000000000000000000000000003
:101DE00000000000000000000000000000000000F3
:101DF00000000000000000000000000000000000E3
:101E000000000000000000000000000000000000D2
:101E100000000000000000000000000000000000C2
:101E200000000000000000000000000000000000B2
:101E300000000000000000000000000000000000A2
:101E40000000000000000000000000000000000092
:101E50000000000000000000000000000000000082
:101E60000000000000000000000000000000000072
:101E70000000000000000000000000000000000062
:101E80000000000000000000000000000000000052
:101E90000000000000000000000025C5C500000093
:101EA0000000000000000000000000000000000032
:101EB0000000000000000000000000000000000022
:101EC0000000000000000000000000000000000012
:101ED0000000000000000000000000000000000002
:101EE00000000000000000000000000000000000F2
:101EF00000000000000000000000000000000000E2
:101F000000000000000000000000000000000000D1
:101F100000000000000000000000000000000000C1
:101F200000000000000000000000000000000000B1
:101F300000000000000000000000000000000000A1
:101F40000000000000000000000000000000000091
:101F50000000000000000000000000000000000081
:101F60000000000000000000000000000000000071
:101F70000000000000000000000000000000000061
:101F80000000000000000000000000000000000051
:101F90000000000000000000000000000000000041
:101FA0000000000000000000000000000000000031
:101FB0000000000000000000000000000000000021
:101FC0000000000000000000000000000000000011
:101FD0000000000000000000000000000000000001
:101FE00000000000000000000000000000000000F1
:101FF00000000000000000000000000000000000E1
:00000001FF
