:1000000004040404040404040404040404040404B0
:1000100004040404040404040404040404040404A0
:100020000404040404040404040404040404040490
:100030000404040404040404040404040404040480
:100040000404040404040404040404040404040470
:100050000404040404040404040404040404040460
:100060000404040404040404040404040404040450
:100070000404040404040404040404040404040440
:100080000404040404040404040404040404040430
:100090000404040404040404040404040404040420
:1000A0000404040404040404040404040404040410
:1000B0000404040404040404040404040404040400
:1000C00004040404040404040404040404040404F0
:1000D00004040404040404040404040404040404E0
:1000E00004040404040404040404040404040404D0
:1000F00004040404040404040404040404040404C0
:1001000004040404040404040404040404040404AF
:10011000040404040404040404040404040404049F
:1001200025202727262020252B332F3704040404DD
:10013000040404040404040404040404040404047F
:10014000040404040404040404040404040404046F
:10015000040404040404040404040404040404045F
:10016000040404040404040404040404040404044F
:10017000040404040404040404040404040404043F
:10018000252027272620040404040404040404046E
:10019000040404040404040404040404040404041F
:1001A000040404040404040404040404040404040F
:1001B00004040404040404040404040404040404FF
:1001C00004040404040404040404040404040404EF
:1001D00004040404040404040404040404040404DF
:1001E00004040404040404040404040404040404CF
:1001F00004040404040404040404040404040404BF
:1002000004040404040404040404040404040404AE
:10021000040404040404040404040404040404049E
:10022000040404040404040404040404040404048E
:10023000040404040404040404040404040404047E
:10024000040404048484C4C4C4C48404840404046E
:10025000040404040404040404040404040404045E
:10026000040404040404040404040404040404044E
:10027000040404040404040404040404040404043E
:10028000040404040404040404040404040404042E
:10029000040404040404040404040404040404041E
:1002A000040404040404040404040404040404040E
:1002B00004040404040404040404040404040404FE
:1002C00004040404040404040404040404040404EE
:1002D00004040404040404040404040404040404DE
:1002E00004040404040404040404040404040404CE
:1002F00004040404040404040404040404040404BE
:1003000004040404040404040404040404040404AD
:10031000040404040404040404040404040404049D
:10032000040404040404040404040404040404048D
:10033000040404040404040404040404040404047D
:10034000040404048484C4C4C4C48404840404046D
:10035000040404040404040404040404040404045D
:10036000040404040404040404040404040404044D
:10037000040404040404040404040404040404043D
:10038000040404040404040404040404040404042D
:1011200025202727262020252B332F3704040404CD
:10113000040404040404040404040404040404046F
:10114000040404040404040404040404040404045F
:10115000040404040404040404040404040404044F
:10116000040404040404040404040404040404043F
:10117000040404040404040404040404040404042F
:10118000252027272620040404040404040404045E
:10119000040404040404040404040404040404040F
:1011A00004040404040404040404040404040404FF
:1011B00004040404040404040404040404040404EF
:1011C00004040404040404040404040404040404DF
:1011D00004040404040404040404040404040404CF
:1011E00004040404040404040404040404040404BF
:1011F00004040404040404040404040404040404AF
:10120000040404040404040404040404040404049E
:10121000040404040404040404040404040404048E
:10122000040404040404040404040404040404047E
:10123000040404040404040404040404040404046E
:10124000040404048484C4C4C4C48404840404045E
:10125000040404040404040404040404040404044E
:10126000040404040404040404040404040404043E
:10127000040404040404040404040404040404042E
:10128000040404040404040404040404040404041E
:10129000040404040404040404040404040404040E
:1012A00004040404040404040404040404040404FE
:1012B00004040404040404040404040404040404EE
:1012C00004040404040404040404040404040404DE
:1012D00004040404040404040404040404040404CE
:1012E00004040404040404040404040404040404BE
:1012F00004040404040404040404040404040404AE
:10130000040404040404040404040404040404049D
:10131000040404040404040404040404040404048D
:10132000040404040404040404040404040404047D
:10133000040404040404040404040404040404046D
:10134000040404048484C4C4C4C48404840404045D
:10135000040404040404040404040404040404044D
:10136000040404040404040404040404040404043D
:10137000040404040404040404040404040404042D
:10138000040404040404040404040404040404041D
:00000001FF
